{"abi":[{"type":"function","name":"getAgent","inputs":[{"name":"addr","type":"address","internalType":"address"}],"outputs":[{"name":"","type":"tuple","internalType":"struct IAgentRegistry.Agent","components":[{"name":"name","type":"string","internalType":"string"},{"name":"attestation","type":"bytes","internalType":"bytes"},{"name":"registeredAt","type":"uint256","internalType":"uint256"},{"name":"exists","type":"bool","internalType":"bool"}]}],"stateMutability":"view"},{"type":"function","name":"getAgentAddresses","inputs":[],"outputs":[{"name":"","type":"address[]","internalType":"address[]"}],"stateMutability":"view"},{"type":"function","name":"getAgentCount","inputs":[],"outputs":[{"name":"","type":"uint256","internalType":"uint256"}],"stateMutability":"view"},{"type":"function","name":"isAgent","inputs":[{"name":"addr","type":"address","internalType":"address"}],"outputs":[{"name":"","type":"bool","internalType":"bool"}],"stateMutability":"view"},{"type":"function","name":"registerAgent","inputs":[{"name":"name","type":"string","internalType":"string"},{"name":"attestation","type":"bytes","internalType":"bytes"}],"outputs":[],"stateMutability":"nonpayable"},{"type":"function","name":"s_agentCount","inputs":[],"outputs":[{"name":"","type":"uint256","internalType":"uint256"}],"stateMutability":"view"},{"type":"event","name":"AgentRegistered","inputs":[{"name":"agent","type":"address","indexed":true,"internalType":"address"},{"name":"name","type":"string","indexed":false,"internalType":"string"}],"anonymous":false},{"type":"error","name":"AgentNotFound","inputs":[]},{"type":"error","name":"AlreadyRegistered","inputs":[]},{"type":"error","name":"EmptyName","inputs":[]}],"bytecode":{"object":"0x6080806040523460155761081b908161001a8239f35b5f80fdfe6080806040526004361015610012575f80fd5b5f3560e01c9081631ffbb064146105c757508063770ed817146104ff57806391cab63e1461015a578063935d854214610177578063b26f80d31461015a5763fb3551ff1461005e575f80fd5b34610156576020366003190112610156576004356001600160a01b03811690819003610156575f606060405161009381610659565b81815281602082015282604082015201525f525f60205261013060405f20604051906100be82610659565b6040516100d6816100cf8185610764565b0382610675565b82526040516100ec816100cf8160018601610764565b6020830190815261014360ff6003600285015494604087019586520154169160608501921515835260405195869560208752516080602088015260a0870190610635565b9051858203601f19016040870152610635565b9151606084015251151560808301520390f35b5f80fd5b34610156575f366003190112610156576020600154604051908152f35b346101565760403660031901126101565760043567ffffffffffffffff8111610156576101a8903690600401610607565b60243567ffffffffffffffff8111610156576101c8903690600401610607565b9290335f525f60205260ff600360405f200154166104f05782156104e15761020b90604051946101f786610659565b610202368686610697565b86523691610697565b92602081019384526040810190428252606081019160018352335f525f60205260405f20915180519067ffffffffffffffff82116103da576102578261025186546106dd565b86610715565b602090601f831160011461047e5761028692915f9183610473575b50508160011b915f199060031b1c19161790565b82555b60018201955195865167ffffffffffffffff81116103da576102b5816102af84546106dd565b84610715565b6020601f821160011461040d5790806102e89260039798999a5f926104025750508160011b915f199060031b1c19161790565b90555b516002820155019051151560ff801983541691161790556001545f1981146103ee5760010160015560025490680100000000000000008210156103da5760018201806002558210156103c6577fda816ca2fc37b9eecec62ae8263008ec6be1afb38dc28bc9c7c51d7e348da9c29160025f527f405787fa12a823e0f2b7631cc41b3ba8828b3321ca811111fa75cd3aa3bb5ace01336bffffffffffffffffffffffff60a01b82541617905582604051916020835281602084015260408301375f604084830101526040813394601f80199101168101030190a2005b634e487b7160e01b5f52603260045260245ffd5b634e487b7160e01b5f52604160045260245ffd5b634e487b7160e01b5f52601160045260245ffd5b015190508a80610272565b601f19821698835f52815f20995f5b81811061045b57509160039798999a91846001959410610444575b505050811b0190556102eb565b01515f1983891b60f8161c19169055898080610437565b838301518c556001909b019a6020938401930161041c565b015190508980610272565b90601f19831691855f52815f20925f5b8181106104c957509084600195949392106104b1575b505050811b018255610289565b01515f1960f88460031b161c191690558880806104a4565b9293602060018192878601518155019501930161048e565b632ef1310560e01b5f5260045ffd5b630ea075bf60e21b5f5260045ffd5b34610156575f366003190112610156576040518060206002549283815201809260025f527f405787fa12a823e0f2b7631cc41b3ba8828b3321ca811111fa75cd3aa3bb5ace905f5b8181106105a8575050508161055d910382610675565b604051918291602083019060208452518091526040830191905f5b818110610586575050500390f35b82516001600160a01b0316845285945060209384019390920191600101610578565b82546001600160a01b0316845260209093019260019283019201610547565b34610156576020366003190112610156576004356001600160a01b0381169190829003610156576020915f525f825260ff600360405f2001541615158152f35b9181601f840112156101565782359167ffffffffffffffff8311610156576020838186019501011161015657565b805180835260209291819084018484015e5f828201840152601f01601f1916010190565b6080810190811067ffffffffffffffff8211176103da57604052565b90601f8019910116810190811067ffffffffffffffff8211176103da57604052565b92919267ffffffffffffffff82116103da57604051916106c1601f8201601f191660200184610675565b829481845281830111610156578281602093845f960137010152565b90600182811c9216801561070b575b60208310146106f757565b634e487b7160e01b5f52602260045260245ffd5b91607f16916106ec565b601f821161072257505050565b5f5260205f20906020601f840160051c8301931061075a575b601f0160051c01905b81811061074f575050565b5f8155600101610744565b909150819061073b565b5f9291815491610773836106dd565b80835292600181169081156107c8575060011461078f57505050565b5f9081526020812093945091925b8383106107ae575060209250010190565b60018160209294939454838587010152019101919061079d565b915050602093945060ff929192191683830152151560051b01019056fea26469706673582212207469638e064b7037cef2bda374fc38d3deb6b8f5b424651376f49e3b32dcd6dc64736f6c634300081a0033","linkReferences":{}},"methodIdentifiers":{"getAgent(address)":"fb3551ff","getAgentAddresses()":"770ed817","getAgentCount()":"91cab63e","isAgent(address)":"1ffbb064","registerAgent(string,bytes)":"935d8542","s_agentCount()":"b26f80d3"},"id":0}