{"abi":[{"type":"constructor","inputs":[{"name":"ensRegistry_","type":"address","internalType":"contract IENS"}],"stateMutability":"nonpayable"},{"type":"function","name":"getAgent","inputs":[{"name":"addr","type":"address","internalType":"address"}],"outputs":[{"name":"","type":"tuple","internalType":"struct IAgentRegistry.Agent","components":[{"name":"name","type":"string","internalType":"string"},{"name":"attestation","type":"bytes","internalType":"bytes"},{"name":"registeredAt","type":"uint256","internalType":"uint256"},{"name":"exists","type":"bool","internalType":"bool"},{"name":"ensNode","type":"bytes32","internalType":"bytes32"}]}],"stateMutability":"view"},{"type":"function","name":"getAgentAddresses","inputs":[],"outputs":[{"name":"","type":"address[]","internalType":"address[]"}],"stateMutability":"view"},{"type":"function","name":"getAgentByENS","inputs":[{"name":"ensNode","type":"bytes32","internalType":"bytes32"}],"outputs":[{"name":"","type":"address","internalType":"address"}],"stateMutability":"view"},{"type":"function","name":"getAgentCount","inputs":[],"outputs":[{"name":"","type":"uint256","internalType":"uint256"}],"stateMutability":"view"},{"type":"function","name":"i_ensRegistry","inputs":[],"outputs":[{"name":"","type":"address","internalType":"contract IENS"}],"stateMutability":"view"},{"type":"function","name":"isAgent","inputs":[{"name":"addr","type":"address","internalType":"address"}],"outputs":[{"name":"","type":"bool","internalType":"bool"}],"stateMutability":"view"},{"type":"function","name":"registerAgent","inputs":[{"name":"name","type":"string","internalType":"string"},{"name":"attestation","type":"bytes","internalType":"bytes"}],"outputs":[],"stateMutability":"nonpayable"},{"type":"function","name":"registerAgentWithENS","inputs":[{"name":"name","type":"string","internalType":"string"},{"name":"attestation","type":"bytes","internalType":"bytes"},{"name":"ensNode","type":"bytes32","internalType":"bytes32"}],"outputs":[],"stateMutability":"nonpayable"},{"type":"function","name":"s_agentCount","inputs":[],"outputs":[{"name":"","type":"uint256","internalType":"uint256"}],"stateMutability":"view"},{"type":"event","name":"AgentRegistered","inputs":[{"name":"agent","type":"address","indexed":true,"internalType":"address"},{"name":"name","type":"string","indexed":false,"internalType":"string"}],"anonymous":false},{"type":"event","name":"ENSLinked","inputs":[{"name":"agent","type":"address","indexed":true,"internalType":"address"},{"name":"ensNode","type":"bytes32","indexed":true,"internalType":"bytes32"},{"name":"name","type":"string","indexed":false,"internalType":"string"}],"anonymous":false},{"type":"error","name":"AgentNotFound","inputs":[]},{"type":"error","name":"AlreadyRegistered","inputs":[]},{"type":"error","name":"ENSNodeAlreadyLinked","inputs":[]},{"type":"error","name":"ENSNodeNotLinked","inputs":[]},{"type":"error","name":"ENSNotConfigured","inputs":[]},{"type":"error","name":"EmptyName","inputs":[]},{"type":"error","name":"NotENSOwner","inputs":[]}],"bytecode":{"object":"0x60a034606d57601f610e1038819003918201601f19168301916001600160401b03831184841017607157808492602094604052833981010312606d57516001600160a01b0381168103606d57608052604051610d8a908161008682396080518181816101c80152610a0d0152f35b5f80fd5b634e487b7160e01b5f52604160045260245ffdfe6080806040526004361015610012575f80fd5b5f3560e01c9081631ffbb06414610b0f57508063361d30af1461068257806364e6f82c14610637578063770ed8171461056f57806391cab63e14610196578063935d8542146101f7578063964bee72146101b3578063b26f80d3146101965763fb3551ff1461007f575f80fd5b34610192576020366003190112610192576004356001600160a01b03811690819003610192575f60806040516100b481610ba1565b606081526060602082015282604082015282606082015201525f525f60205261016660405f20604051906100e782610ba1565b6040516100ff816100f88185610c17565b0382610bbd565b8252604051610115816100f88160018601610c17565b6020830190815260028201549160408401928352610179600460ff6003840154169260608701931515845201549260808601938452604051968796602088525160a0602089015260c0880190610b7d565b9051868203601f19016040880152610b7d565b9251606085015251151560808401525160a08301520390f35b5f80fd5b34610192575f366003190112610192576020600254604051908152f35b34610192575f366003190112610192576040517f00000000000000000000000000000000000000000000000000000000000000006001600160a01b03168152602090f35b346101925760403660031901126101925760043567ffffffffffffffff811161019257610228903690600401610b4f565b9060243567ffffffffffffffff811161019257610249903690600401610b4f565b9290335f525f60205260ff600360405f200154166105605781156105515761028c906040519461027886610ba1565b610283368587610c98565b86523691610c98565b926020810193845260408101428152606082016001815260808301915f8352335f525f60205260405f20935180519067ffffffffffffffff8211610449576102de826102d88854610bdf565b88610cde565b602090601f83116001146104ee5761030d92915f91836104e3575b50508160011b915f199060031b1c19161790565b84555b60018401965196875167ffffffffffffffff81116104495761033c816103368454610bdf565b84610cde565b6020601f821160011461047c57908061036f92600498999a9b5f926104715750508160011b915f199060031b1c19161790565b90555b516002850155600384019051151560ff80198354169116179055519101556002545f19811461045d57600101600255600354600160401b811015610449576001810180600355811015610435577fda816ca2fc37b9eecec62ae8263008ec6be1afb38dc28bc9c7c51d7e348da9c2916104309160035f527fc2575a0e9e593c00f959f8c92f12db2869c3395a3b0502d05e2516446f71f85b01336bffffffffffffffffffffffff60a01b825416179055604051918291339583610d2d565b0390a2005b634e487b7160e01b5f52603260045260245ffd5b634e487b7160e01b5f52604160045260245ffd5b634e487b7160e01b5f52601160045260245ffd5b015190508b806102f9565b601f19821699835f52815f209a5f5b8181106104cb575091600498999a9b918460019594106104b3575b505050811b019055610372565b01515f1960f88460031b161c191690558a80806104a6565b838301518d556001909c019b6020938401930161048b565b015190508a806102f9565b90601f19831691875f52815f20925f5b8181106105395750908460019594939210610521575b505050811b018455610310565b01515f1960f88460031b161c19169055898080610514565b929360206001819287860151815501950193016104fe565b632ef1310560e01b5f5260045ffd5b630ea075bf60e21b5f5260045ffd5b34610192575f366003190112610192576040518060206003549283815201809260035f527fc2575a0e9e593c00f959f8c92f12db2869c3395a3b0502d05e2516446f71f85b905f5b81811061061857505050816105cd910382610bbd565b604051918291602083019060208452518091526040830191905f5b8181106105f6575050500390f35b82516001600160a01b03168452859450602093840193909201916001016105e8565b82546001600160a01b03168452602090930192600192830192016105b7565b34610192576020366003190112610192576004355f908152600160205260409020546001600160a01b0316801561067357602090604051908152f35b6378eb687760e11b5f5260045ffd5b346101925760603660031901126101925760043567ffffffffffffffff8111610192576106b3903690600401610b4f565b9060243567ffffffffffffffff8111610192576106d4903690600401610b4f565b929060443593335f525f60205260ff600360405f20015416610560578215610551578415159182610a0b575b610725906040519261071184610ba1565b61071c368789610c98565b84523691610c98565b60208201908152604082014281526060830190600182526080840192888452335f525f60205260405f20945180519067ffffffffffffffff821161044957610777826107718954610bdf565b89610cde565b602090601f83116001146109a8576107a592915f918361099d5750508160011b915f199060031b1c19161790565b85555b518051600186019167ffffffffffffffff8211610449576107d3826107cd8554610bdf565b85610cde565b602090601f831160011461093457918061080892600498979695945f926109295750508160011b915f199060031b1c19161790565b90555b516002850155600384019051151560ff80198354169116179055519101556002545f19811461045d57600101600255600354600160401b8110156104495760018101806003558110156104355760035f527fc2575a0e9e593c00f959f8c92f12db2869c3395a3b0502d05e2516446f71f85b0180546001600160a01b0319163317905580610907575b6040517fda816ca2fc37b9eecec62ae8263008ec6be1afb38dc28bc9c7c51d7e348da9c23391806108c6868883610d2d565b0390a26108cf57005b6109027f6f154dce8355b83a71b4405f5f7ea53fa4d8091bfbdaa6e4c9712f8fefc46bac91604051918291339583610d2d565b0390a3005b5f84815260016020526040902080546001600160a01b03191633179055610894565b015190508d806102f9565b90601f19831691845f52815f20925f5b818110610985575091600193918560049a99989796941061096d575b505050811b01905561080b565b01515f1960f88460031b161c191690558c8080610960565b92936020600181928786015181550195019301610944565b015190508c806102f9565b90601f19831691885f52815f20925f5b8181106109f357509084600195949392106109db575b505050811b0185556107a8565b01515f1960f88460031b161c191690558b80806109ce565b929360206001819287860151815501950193016109b8565b7f00000000000000000000000000000000000000000000000000000000000000006001600160a01b03168015610b00576020602491604051928380926302571be360e01b82528b60048301525afa908115610af5575f91610ab3575b50336001600160a01b0390911603610aa4575f868152600160205260409020546001600160a01b031615610700576306b234cb60e11b5f5260045ffd5b632a2eb1cb60e01b5f5260045ffd5b90506020813d602011610aed575b81610ace60209383610bbd565b8101031261019257516001600160a01b03811681036101925787610a67565b3d9150610ac1565b6040513d5f823e3d90fd5b6388be8a3b60e01b5f5260045ffd5b34610192576020366003190112610192576004356001600160a01b0381169190829003610192576020915f525f825260ff600360405f2001541615158152f35b9181601f840112156101925782359167ffffffffffffffff8311610192576020838186019501011161019257565b805180835260209291819084018484015e5f828201840152601f01601f1916010190565b60a0810190811067ffffffffffffffff82111761044957604052565b90601f8019910116810190811067ffffffffffffffff82111761044957604052565b90600182811c92168015610c0d575b6020831014610bf957565b634e487b7160e01b5f52602260045260245ffd5b91607f1691610bee565b5f9291815491610c2683610bdf565b8083529260018116908115610c7b5750600114610c4257505050565b5f9081526020812093945091925b838310610c61575060209250010190565b600181602092949394548385870101520191019190610c50565b915050602093945060ff929192191683830152151560051b010190565b92919267ffffffffffffffff82116104495760405191610cc2601f8201601f191660200184610bbd565b829481845281830111610192578281602093845f960137010152565b601f8211610ceb57505050565b5f5260205f20906020601f840160051c83019310610d23575b601f0160051c01905b818110610d18575050565b5f8155600101610d0d565b9091508190610d04565b90918060409360208452816020850152848401375f828201840152601f01601f191601019056fea26469706673582212200bd5c94c264edf4b0e2a679a215d4bbdc9863b61e2fc6f80b2d74f96fc54e99264736f6c634300081a0033","linkReferences":{}},"methodIdentifiers":{"getAgent(address)":"fb3551ff","getAgentAddresses()":"770ed817","getAgentByENS(bytes32)":"64e6f82c","getAgentCount()":"91cab63e","i_ensRegistry()":"964bee72","isAgent(address)":"1ffbb064","registerAgent(string,bytes)":"935d8542","registerAgentWithENS(string,bytes,bytes32)":"361d30af","s_agentCount()":"b26f80d3"},"id":95}