{"abi":[{"type":"constructor","inputs":[{"name":"ensRegistry_","type":"address","internalType":"contract IENS"},{"name":"baseNode_","type":"bytes32","internalType":"bytes32"},{"name":"agentRegistry_","type":"address","internalType":"address"}],"stateMutability":"nonpayable"},{"type":"function","name":"computeSubnode","inputs":[{"name":"subdomain","type":"string","internalType":"string"}],"outputs":[{"name":"","type":"bytes32","internalType":"bytes32"}],"stateMutability":"view"},{"type":"function","name":"i_agentRegistry","inputs":[],"outputs":[{"name":"","type":"address","internalType":"address"}],"stateMutability":"view"},{"type":"function","name":"i_baseNode","inputs":[],"outputs":[{"name":"","type":"bytes32","internalType":"bytes32"}],"stateMutability":"view"},{"type":"function","name":"i_ensRegistry","inputs":[],"outputs":[{"name":"","type":"address","internalType":"contract IENS"}],"stateMutability":"view"},{"type":"function","name":"registerAgentSubdomain","inputs":[{"name":"subdomain","type":"string","internalType":"string"},{"name":"owner","type":"address","internalType":"address"}],"outputs":[{"name":"subnode","type":"bytes32","internalType":"bytes32"}],"stateMutability":"nonpayable"},{"type":"event","name":"AgentSubdomainRegistered","inputs":[{"name":"subdomain","type":"string","indexed":false,"internalType":"string"},{"name":"owner","type":"address","indexed":true,"internalType":"address"},{"name":"subnode","type":"bytes32","indexed":true,"internalType":"bytes32"}],"anonymous":false},{"type":"error","name":"EmptySubdomain","inputs":[]},{"type":"error","name":"OnlyAgentRegistry","inputs":[]},{"type":"error","name":"ZeroAddress","inputs":[]}],"bytecode":{"object":"0x60e0346100ba57601f61055638819003918201601f19168301916001600160401b038311848410176100be578084926060946040528339810103126100ba578051906001600160a01b03821682036100ba576020810151604090910151916001600160a01b03831683036100ba5760805260a05260c05260405161048390816100d38239608051818181606501526101b3015260a05181818160af015281816101770152610363015260c05181818161011b01526102e80152f35b5f80fd5b634e487b7160e01b5f52604160045260245ffdfe60806040526004361015610011575f80fd5b5f3560e01c806315744e8d146103175780634eaeca32146102d35780636aae2f76146100d257806392cd341e146100985763964bee7214610050575f80fd5b34610094575f366003190112610094576040517f00000000000000000000000000000000000000000000000000000000000000006001600160a01b03168152602090f35b5f80fd5b34610094575f3660031901126100945760206040517f00000000000000000000000000000000000000000000000000000000000000008152f35b346100945760403660031901126100945760043567ffffffffffffffff8111610094576101039036906004016103a3565b906024356001600160a01b03811690819003610094577f00000000000000000000000000000000000000000000000000000000000000006001600160a01b031633036102c45782156102b55780156102a657610160368484610407565b80516020918201206040516306ab592360e01b81527f000000000000000000000000000000000000000000000000000000000000000060048201526024810191909152604481018390529290836064815f7f00000000000000000000000000000000000000000000000000000000000000006001600160a01b03165af192831561029b575f93610243575b50907f9e90b787cc25043fa3d46409edffd5a567d3c2d451586f8d8f4b109dfd66a7f9846040859460209782519384928a8452818b850152848401375f828201840152601f01601f19168101030190a3604051908152f35b939250906020843d602011610293575b81610260602093836103d1565b810103126100945792519192907f9e90b787cc25043fa3d46409edffd5a567d3c2d451586f8d8f4b109dfd66a7f96101eb565b3d9150610253565b6040513d5f823e3d90fd5b63d92e233d60e01b5f5260045ffd5b631152713b60e21b5f5260045ffd5b6304052e6560e21b5f5260045ffd5b34610094575f366003190112610094576040517f00000000000000000000000000000000000000000000000000000000000000006001600160a01b03168152602090f35b346100945760203660031901126100945760043567ffffffffffffffff81116100945761035461034d60209236906004016103a3565b3691610407565b818151910120604051828101917f000000000000000000000000000000000000000000000000000000000000000083526040820152604081526103986060826103d1565b519020604051908152f35b9181601f840112156100945782359167ffffffffffffffff8311610094576020838186019501011161009457565b90601f8019910116810190811067ffffffffffffffff8211176103f357604052565b634e487b7160e01b5f52604160045260245ffd5b92919267ffffffffffffffff82116103f35760405191610431601f8201601f1916602001846103d1565b829481845281830111610094578281602093845f96013701015256fea26469706673582212206db912caaadee1bd5e8bc483f5b7c4e6378822e48875e57435ff723e37943cd364736f6c634300081a0033","linkReferences":{}},"methodIdentifiers":{"computeSubnode(string)":"15744e8d","i_agentRegistry()":"4eaeca32","i_baseNode()":"92cd341e","i_ensRegistry()":"964bee72","registerAgentSubdomain(string,address)":"6aae2f76"},"id":96}