{"abi":[{"type":"constructor","inputs":[{"name":"name_","type":"string","internalType":"string"},{"name":"symbol_","type":"string","internalType":"string"},{"name":"hook_","type":"address","internalType":"address"}],"stateMutability":"nonpayable"},{"type":"function","name":"allowance","inputs":[{"name":"owner","type":"address","internalType":"address"},{"name":"spender","type":"address","internalType":"address"}],"outputs":[{"name":"","type":"uint256","internalType":"uint256"}],"stateMutability":"view"},{"type":"function","name":"approve","inputs":[{"name":"spender","type":"address","internalType":"address"},{"name":"value","type":"uint256","internalType":"uint256"}],"outputs":[{"name":"","type":"bool","internalType":"bool"}],"stateMutability":"nonpayable"},{"type":"function","name":"balanceOf","inputs":[{"name":"account","type":"address","internalType":"address"}],"outputs":[{"name":"","type":"uint256","internalType":"uint256"}],"stateMutability":"view"},{"type":"function","name":"burn","inputs":[{"name":"from","type":"address","internalType":"address"},{"name":"amount","type":"uint256","internalType":"uint256"}],"outputs":[],"stateMutability":"nonpayable"},{"type":"function","name":"decimals","inputs":[],"outputs":[{"name":"","type":"uint8","internalType":"uint8"}],"stateMutability":"view"},{"type":"function","name":"hook","inputs":[],"outputs":[{"name":"","type":"address","internalType":"address"}],"stateMutability":"view"},{"type":"function","name":"mint","inputs":[{"name":"to","type":"address","internalType":"address"},{"name":"amount","type":"uint256","internalType":"uint256"}],"outputs":[],"stateMutability":"nonpayable"},{"type":"function","name":"name","inputs":[],"outputs":[{"name":"","type":"string","internalType":"string"}],"stateMutability":"view"},{"type":"function","name":"symbol","inputs":[],"outputs":[{"name":"","type":"string","internalType":"string"}],"stateMutability":"view"},{"type":"function","name":"totalSupply","inputs":[],"outputs":[{"name":"","type":"uint256","internalType":"uint256"}],"stateMutability":"view"},{"type":"function","name":"transfer","inputs":[{"name":"to","type":"address","internalType":"address"},{"name":"value","type":"uint256","internalType":"uint256"}],"outputs":[{"name":"","type":"bool","internalType":"bool"}],"stateMutability":"nonpayable"},{"type":"function","name":"transferFrom","inputs":[{"name":"from","type":"address","internalType":"address"},{"name":"to","type":"address","internalType":"address"},{"name":"value","type":"uint256","internalType":"uint256"}],"outputs":[{"name":"","type":"bool","internalType":"bool"}],"stateMutability":"nonpayable"},{"type":"event","name":"Approval","inputs":[{"name":"owner","type":"address","indexed":true,"internalType":"address"},{"name":"spender","type":"address","indexed":true,"internalType":"address"},{"name":"value","type":"uint256","indexed":false,"internalType":"uint256"}],"anonymous":false},{"type":"event","name":"Transfer","inputs":[{"name":"from","type":"address","indexed":true,"internalType":"address"},{"name":"to","type":"address","indexed":true,"internalType":"address"},{"name":"value","type":"uint256","indexed":false,"internalType":"uint256"}],"anonymous":false},{"type":"error","name":"ERC20InsufficientAllowance","inputs":[{"name":"spender","type":"address","internalType":"address"},{"name":"allowance","type":"uint256","internalType":"uint256"},{"name":"needed","type":"uint256","internalType":"uint256"}]},{"type":"error","name":"ERC20InsufficientBalance","inputs":[{"name":"sender","type":"address","internalType":"address"},{"name":"balance","type":"uint256","internalType":"uint256"},{"name":"needed","type":"uint256","internalType":"uint256"}]},{"type":"error","name":"ERC20InvalidApprover","inputs":[{"name":"approver","type":"address","internalType":"address"}]},{"type":"error","name":"ERC20InvalidReceiver","inputs":[{"name":"receiver","type":"address","internalType":"address"}]},{"type":"error","name":"ERC20InvalidSender","inputs":[{"name":"sender","type":"address","internalType":"address"}]},{"type":"error","name":"ERC20InvalidSpender","inputs":[{"name":"spender","type":"address","internalType":"address"}]},{"type":"error","name":"OnlyHook","inputs":[]}],"bytecode":{"object":"0x60a06040523461034457610bc78038038061001981610348565b9283398101906060818303126103445780516001600160401b038111610344578261004591830161036d565b60208201519092906001600160401b0381116103445760409161006991840161036d565b9101516001600160a01b03811681036103445782516001600160401b03811161025557600354600181811c9116801561033a575b602082101461023757601f81116102d7575b506020601f821160011461027457819293945f92610269575b50508160011b915f199060031b1c1916176003555b81516001600160401b03811161025557600454600181811c9116801561024b575b602082101461023757601f81116101d4575b50602092601f821160011461017357928192935f92610168575b50508160011b915f199060031b1c1916176004555b60805260405161080890816103bf82396080518181816101440152818161034301526103c80152f35b015190505f8061012a565b601f1982169360045f52805f20915f5b8681106101bc57508360019596106101a4575b505050811b0160045561013f565b01515f1960f88460031b161c191690555f8080610196565b91926020600181928685015181550194019201610183565b60045f527f8a35acfbc15ff81a39ae7d344fd709f28e8600b4aa8c65c6b64bfe7fe36bd19b601f830160051c8101916020841061022d575b601f0160051c01905b8181106102225750610110565b5f8155600101610215565b909150819061020c565b634e487b7160e01b5f52602260045260245ffd5b90607f16906100fe565b634e487b7160e01b5f52604160045260245ffd5b015190505f806100c8565b601f1982169060035f52805f20915f5b8181106102bf575095836001959697106102a7575b505050811b016003556100dd565b01515f1960f88460031b161c191690555f8080610299565b9192602060018192868b015181550194019201610284565b60035f527fc2575a0e9e593c00f959f8c92f12db2869c3395a3b0502d05e2516446f71f85b601f830160051c81019160208410610330575b601f0160051c01905b81811061032557506100af565b5f8155600101610318565b909150819061030f565b90607f169061009d565b5f80fd5b6040519190601f01601f191682016001600160401b0381118382101761025557604052565b81601f82011215610344578051906001600160401b0382116102555761039c601f8301601f1916602001610348565b928284526020838301011161034457815f9260208093018386015e830101529056fe6080806040526004361015610012575f80fd5b5f3560e01c90816306fdde031461061657508063095ea7b31461059457806318160ddd1461057757806323b872dd14610498578063313ce5671461047d57806340c10f19146103a957806370a08231146103725780637f5a7c7b1461032e57806395d89b41146102135780639dc29fac14610125578063a9059cbb146100f45763dd62ed3e146100a0575f80fd5b346100f05760403660031901126100f0576100b961070f565b6100c1610725565b6001600160a01b039182165f908152600160209081526040808320949093168252928352819020549051908152f35b5f80fd5b346100f05760403660031901126100f05761011a61011061070f565b602435903361073b565b602060405160018152f35b346100f05760403660031901126100f05761013e61070f565b602435907f00000000000000000000000000000000000000000000000000000000000000006001600160a01b03163303610204576001600160a01b031680156101f157805f525f60205260405f20548281106101d8576020835f947fddf252ad1be2c89b69c2b068fc378daa952ba7f163c4a11628f55a4df523b3ef938587528684520360408620558060025403600255604051908152a3005b9063391434e360e21b5f5260045260245260445260645ffd5b634b637e8f60e11b5f525f60045260245ffd5b635a91834f60e01b5f5260045ffd5b346100f0575f3660031901126100f0576040515f6004548060011c90600181168015610324575b602083108114610310578285529081156102f4575060011461029f575b50819003601f01601f191681019067ffffffffffffffff82118183101761028b57610287829182604052826106e5565b0390f35b634e487b7160e01b5f52604160045260245ffd5b905060045f527f8a35acfbc15ff81a39ae7d344fd709f28e8600b4aa8c65c6b64bfe7fe36bd19b5f905b8282106102de57506020915082010182610257565b60018160209254838588010152019101906102c9565b90506020925060ff191682840152151560051b82010182610257565b634e487b7160e01b5f52602260045260245ffd5b91607f169161023a565b346100f0575f3660031901126100f0576040517f00000000000000000000000000000000000000000000000000000000000000006001600160a01b03168152602090f35b346100f05760203660031901126100f0576001600160a01b0361039361070f565b165f525f602052602060405f2054604051908152f35b346100f05760403660031901126100f0576103c261070f565b602435907f00000000000000000000000000000000000000000000000000000000000000006001600160a01b03163303610204576001600160a01b031690811561046a57600254908082018092116104565760207fddf252ad1be2c89b69c2b068fc378daa952ba7f163c4a11628f55a4df523b3ef915f9360025584845283825260408420818154019055604051908152a3005b634e487b7160e01b5f52601160045260245ffd5b63ec442f0560e01b5f525f60045260245ffd5b346100f0575f3660031901126100f057602060405160128152f35b346100f05760603660031901126100f0576104b161070f565b6104b9610725565b6001600160a01b0382165f818152600160209081526040808320338452909152902054909260443592915f1981106104f7575b5061011a935061073b565b83811061055c5784156105495733156105365761011a945f52600160205260405f2060018060a01b0333165f526020528360405f2091039055846104ec565b634a1406b160e11b5f525f60045260245ffd5b63e602df0560e01b5f525f60045260245ffd5b8390637dc7a0d960e11b5f523360045260245260445260645ffd5b346100f0575f3660031901126100f0576020600254604051908152f35b346100f05760403660031901126100f0576105ad61070f565b602435903315610549576001600160a01b031690811561053657335f52600160205260405f20825f526020528060405f20556040519081527f8c5be1e5ebec7d5bd14f71427d1e84f3dd0314c0f7b2291e5b200ac8c7c3b92560203392a3602060405160018152f35b346100f0575f3660031901126100f0575f6003548060011c906001811680156106db575b602083108114610310578285529081156102f457506001146106865750819003601f01601f191681019067ffffffffffffffff82118183101761028b57610287829182604052826106e5565b905060035f527fc2575a0e9e593c00f959f8c92f12db2869c3395a3b0502d05e2516446f71f85b5f905b8282106106c557506020915082010182610257565b60018160209254838588010152019101906106b0565b91607f169161063a565b602060409281835280519182918282860152018484015e5f828201840152601f01601f1916010190565b600435906001600160a01b03821682036100f057565b602435906001600160a01b03821682036100f057565b6001600160a01b03169081156101f1576001600160a01b031691821561046a57815f525f60205260405f20548181106107b957817fddf252ad1be2c89b69c2b068fc378daa952ba7f163c4a11628f55a4df523b3ef92602092855f525f84520360405f2055845f525f825260405f20818154019055604051908152a3565b8263391434e360e21b5f5260045260245260445260645ffdfea26469706673582212209e2c80f9ddb0d9d45b19eb0141e39e64516de5237e97798ae0cb24aa56d56f6c64736f6c634300081a0033","linkReferences":{}},"methodIdentifiers":{"allowance(address,address)":"dd62ed3e","approve(address,uint256)":"095ea7b3","balanceOf(address)":"70a08231","burn(address,uint256)":"9dc29fac","decimals()":"313ce567","hook()":"7f5a7c7b","mint(address,uint256)":"40c10f19","name()":"06fdde03","symbol()":"95d89b41","totalSupply()":"18160ddd","transfer(address,uint256)":"a9059cbb","transferFrom(address,address,uint256)":"23b872dd"},"id":5}