{"abi":[{"type":"constructor","inputs":[{"name":"_poolManager","type":"address","internalType":"contract IPoolManager"},{"name":"_registry","type":"address","internalType":"contract IAgentRegistry"},{"name":"_oo","type":"address","internalType":"contract OptimisticOracleV3Interface"},{"name":"_currency","type":"address","internalType":"contract IERC20"},{"name":"_defaultLiveness","type":"uint64","internalType":"uint64"}],"stateMutability":"nonpayable"},{"type":"receive","stateMutability":"payable"},{"type":"function","name":"afterAddLiquidity","inputs":[{"name":"sender","type":"address","internalType":"address"},{"name":"key","type":"tuple","internalType":"struct PoolKey","components":[{"name":"currency0","type":"address","internalType":"Currency"},{"name":"currency1","type":"address","internalType":"Currency"},{"name":"fee","type":"uint24","internalType":"uint24"},{"name":"tickSpacing","type":"int24","internalType":"int24"},{"name":"hooks","type":"address","internalType":"contract IHooks"}]},{"name":"params","type":"tuple","internalType":"struct ModifyLiquidityParams","components":[{"name":"tickLower","type":"int24","internalType":"int24"},{"name":"tickUpper","type":"int24","internalType":"int24"},{"name":"liquidityDelta","type":"int256","internalType":"int256"},{"name":"salt","type":"bytes32","internalType":"bytes32"}]},{"name":"delta","type":"int256","internalType":"BalanceDelta"},{"name":"feesAccrued","type":"int256","internalType":"BalanceDelta"},{"name":"hookData","type":"bytes","internalType":"bytes"}],"outputs":[{"name":"","type":"bytes4","internalType":"bytes4"},{"name":"","type":"int256","internalType":"BalanceDelta"}],"stateMutability":"nonpayable"},{"type":"function","name":"afterDonate","inputs":[{"name":"sender","type":"address","internalType":"address"},{"name":"key","type":"tuple","internalType":"struct PoolKey","components":[{"name":"currency0","type":"address","internalType":"Currency"},{"name":"currency1","type":"address","internalType":"Currency"},{"name":"fee","type":"uint24","internalType":"uint24"},{"name":"tickSpacing","type":"int24","internalType":"int24"},{"name":"hooks","type":"address","internalType":"contract IHooks"}]},{"name":"amount0","type":"uint256","internalType":"uint256"},{"name":"amount1","type":"uint256","internalType":"uint256"},{"name":"hookData","type":"bytes","internalType":"bytes"}],"outputs":[{"name":"","type":"bytes4","internalType":"bytes4"}],"stateMutability":"nonpayable"},{"type":"function","name":"afterInitialize","inputs":[{"name":"sender","type":"address","internalType":"address"},{"name":"key","type":"tuple","internalType":"struct PoolKey","components":[{"name":"currency0","type":"address","internalType":"Currency"},{"name":"currency1","type":"address","internalType":"Currency"},{"name":"fee","type":"uint24","internalType":"uint24"},{"name":"tickSpacing","type":"int24","internalType":"int24"},{"name":"hooks","type":"address","internalType":"contract IHooks"}]},{"name":"sqrtPriceX96","type":"uint160","internalType":"uint160"},{"name":"tick","type":"int24","internalType":"int24"}],"outputs":[{"name":"","type":"bytes4","internalType":"bytes4"}],"stateMutability":"nonpayable"},{"type":"function","name":"afterRemoveLiquidity","inputs":[{"name":"sender","type":"address","internalType":"address"},{"name":"key","type":"tuple","internalType":"struct PoolKey","components":[{"name":"currency0","type":"address","internalType":"Currency"},{"name":"currency1","type":"address","internalType":"Currency"},{"name":"fee","type":"uint24","internalType":"uint24"},{"name":"tickSpacing","type":"int24","internalType":"int24"},{"name":"hooks","type":"address","internalType":"contract IHooks"}]},{"name":"params","type":"tuple","internalType":"struct ModifyLiquidityParams","components":[{"name":"tickLower","type":"int24","internalType":"int24"},{"name":"tickUpper","type":"int24","internalType":"int24"},{"name":"liquidityDelta","type":"int256","internalType":"int256"},{"name":"salt","type":"bytes32","internalType":"bytes32"}]},{"name":"delta","type":"int256","internalType":"BalanceDelta"},{"name":"feesAccrued","type":"int256","internalType":"BalanceDelta"},{"name":"hookData","type":"bytes","internalType":"bytes"}],"outputs":[{"name":"","type":"bytes4","internalType":"bytes4"},{"name":"","type":"int256","internalType":"BalanceDelta"}],"stateMutability":"nonpayable"},{"type":"function","name":"afterSwap","inputs":[{"name":"sender","type":"address","internalType":"address"},{"name":"key","type":"tuple","internalType":"struct PoolKey","components":[{"name":"currency0","type":"address","internalType":"Currency"},{"name":"currency1","type":"address","internalType":"Currency"},{"name":"fee","type":"uint24","internalType":"uint24"},{"name":"tickSpacing","type":"int24","internalType":"int24"},{"name":"hooks","type":"address","internalType":"contract IHooks"}]},{"name":"params","type":"tuple","internalType":"struct SwapParams","components":[{"name":"zeroForOne","type":"bool","internalType":"bool"},{"name":"amountSpecified","type":"int256","internalType":"int256"},{"name":"sqrtPriceLimitX96","type":"uint160","internalType":"uint160"}]},{"name":"delta","type":"int256","internalType":"BalanceDelta"},{"name":"hookData","type":"bytes","internalType":"bytes"}],"outputs":[{"name":"","type":"bytes4","internalType":"bytes4"},{"name":"","type":"int128","internalType":"int128"}],"stateMutability":"nonpayable"},{"type":"function","name":"assertMarket","inputs":[{"name":"marketId","type":"bytes32","internalType":"bytes32"},{"name":"assertedOutcome","type":"string","internalType":"string"}],"outputs":[],"stateMutability":"nonpayable"},{"type":"function","name":"assertionDisputedCallback","inputs":[{"name":"assertionId","type":"bytes32","internalType":"bytes32"}],"outputs":[],"stateMutability":"nonpayable"},{"type":"function","name":"assertionResolvedCallback","inputs":[{"name":"assertionId","type":"bytes32","internalType":"bytes32"},{"name":"assertedTruthfully","type":"bool","internalType":"bool"}],"outputs":[],"stateMutability":"nonpayable"},{"type":"function","name":"beforeAddLiquidity","inputs":[{"name":"sender","type":"address","internalType":"address"},{"name":"key","type":"tuple","internalType":"struct PoolKey","components":[{"name":"currency0","type":"address","internalType":"Currency"},{"name":"currency1","type":"address","internalType":"Currency"},{"name":"fee","type":"uint24","internalType":"uint24"},{"name":"tickSpacing","type":"int24","internalType":"int24"},{"name":"hooks","type":"address","internalType":"contract IHooks"}]},{"name":"params","type":"tuple","internalType":"struct ModifyLiquidityParams","components":[{"name":"tickLower","type":"int24","internalType":"int24"},{"name":"tickUpper","type":"int24","internalType":"int24"},{"name":"liquidityDelta","type":"int256","internalType":"int256"},{"name":"salt","type":"bytes32","internalType":"bytes32"}]},{"name":"hookData","type":"bytes","internalType":"bytes"}],"outputs":[{"name":"","type":"bytes4","internalType":"bytes4"}],"stateMutability":"nonpayable"},{"type":"function","name":"beforeDonate","inputs":[{"name":"sender","type":"address","internalType":"address"},{"name":"key","type":"tuple","internalType":"struct PoolKey","components":[{"name":"currency0","type":"address","internalType":"Currency"},{"name":"currency1","type":"address","internalType":"Currency"},{"name":"fee","type":"uint24","internalType":"uint24"},{"name":"tickSpacing","type":"int24","internalType":"int24"},{"name":"hooks","type":"address","internalType":"contract IHooks"}]},{"name":"amount0","type":"uint256","internalType":"uint256"},{"name":"amount1","type":"uint256","internalType":"uint256"},{"name":"hookData","type":"bytes","internalType":"bytes"}],"outputs":[{"name":"","type":"bytes4","internalType":"bytes4"}],"stateMutability":"nonpayable"},{"type":"function","name":"beforeInitialize","inputs":[{"name":"sender","type":"address","internalType":"address"},{"name":"key","type":"tuple","internalType":"struct PoolKey","components":[{"name":"currency0","type":"address","internalType":"Currency"},{"name":"currency1","type":"address","internalType":"Currency"},{"name":"fee","type":"uint24","internalType":"uint24"},{"name":"tickSpacing","type":"int24","internalType":"int24"},{"name":"hooks","type":"address","internalType":"contract IHooks"}]},{"name":"sqrtPriceX96","type":"uint160","internalType":"uint160"}],"outputs":[{"name":"","type":"bytes4","internalType":"bytes4"}],"stateMutability":"nonpayable"},{"type":"function","name":"beforeRemoveLiquidity","inputs":[{"name":"sender","type":"address","internalType":"address"},{"name":"key","type":"tuple","internalType":"struct PoolKey","components":[{"name":"currency0","type":"address","internalType":"Currency"},{"name":"currency1","type":"address","internalType":"Currency"},{"name":"fee","type":"uint24","internalType":"uint24"},{"name":"tickSpacing","type":"int24","internalType":"int24"},{"name":"hooks","type":"address","internalType":"contract IHooks"}]},{"name":"params","type":"tuple","internalType":"struct ModifyLiquidityParams","components":[{"name":"tickLower","type":"int24","internalType":"int24"},{"name":"tickUpper","type":"int24","internalType":"int24"},{"name":"liquidityDelta","type":"int256","internalType":"int256"},{"name":"salt","type":"bytes32","internalType":"bytes32"}]},{"name":"hookData","type":"bytes","internalType":"bytes"}],"outputs":[{"name":"","type":"bytes4","internalType":"bytes4"}],"stateMutability":"nonpayable"},{"type":"function","name":"beforeSwap","inputs":[{"name":"sender","type":"address","internalType":"address"},{"name":"key","type":"tuple","internalType":"struct PoolKey","components":[{"name":"currency0","type":"address","internalType":"Currency"},{"name":"currency1","type":"address","internalType":"Currency"},{"name":"fee","type":"uint24","internalType":"uint24"},{"name":"tickSpacing","type":"int24","internalType":"int24"},{"name":"hooks","type":"address","internalType":"contract IHooks"}]},{"name":"params","type":"tuple","internalType":"struct SwapParams","components":[{"name":"zeroForOne","type":"bool","internalType":"bool"},{"name":"amountSpecified","type":"int256","internalType":"int256"},{"name":"sqrtPriceLimitX96","type":"uint160","internalType":"uint160"}]},{"name":"hookData","type":"bytes","internalType":"bytes"}],"outputs":[{"name":"","type":"bytes4","internalType":"bytes4"},{"name":"","type":"int256","internalType":"BeforeSwapDelta"},{"name":"","type":"uint24","internalType":"uint24"}],"stateMutability":"nonpayable"},{"type":"function","name":"getHookPermissions","inputs":[],"outputs":[{"name":"","type":"tuple","internalType":"struct Hooks.Permissions","components":[{"name":"beforeInitialize","type":"bool","internalType":"bool"},{"name":"afterInitialize","type":"bool","internalType":"bool"},{"name":"beforeAddLiquidity","type":"bool","internalType":"bool"},{"name":"afterAddLiquidity","type":"bool","internalType":"bool"},{"name":"beforeRemoveLiquidity","type":"bool","internalType":"bool"},{"name":"afterRemoveLiquidity","type":"bool","internalType":"bool"},{"name":"beforeSwap","type":"bool","internalType":"bool"},{"name":"afterSwap","type":"bool","internalType":"bool"},{"name":"beforeDonate","type":"bool","internalType":"bool"},{"name":"afterDonate","type":"bool","internalType":"bool"},{"name":"beforeSwapReturnDelta","type":"bool","internalType":"bool"},{"name":"afterSwapReturnDelta","type":"bool","internalType":"bool"},{"name":"afterAddLiquidityReturnDelta","type":"bool","internalType":"bool"},{"name":"afterRemoveLiquidityReturnDelta","type":"bool","internalType":"bool"}]}],"stateMutability":"pure"},{"type":"function","name":"getMarket","inputs":[{"name":"marketId","type":"bytes32","internalType":"bytes32"}],"outputs":[{"name":"description","type":"string","internalType":"string"},{"name":"outcome1","type":"string","internalType":"string"},{"name":"outcome2","type":"string","internalType":"string"},{"name":"outcome1Token","type":"address","internalType":"address"},{"name":"outcome2Token","type":"address","internalType":"address"},{"name":"reward","type":"uint256","internalType":"uint256"},{"name":"requiredBond","type":"uint256","internalType":"uint256"},{"name":"resolved","type":"bool","internalType":"bool"},{"name":"assertedOutcomeId","type":"bytes32","internalType":"bytes32"},{"name":"poolId","type":"bytes32","internalType":"PoolId"},{"name":"totalCollateral","type":"uint256","internalType":"uint256"}],"stateMutability":"view"},{"type":"function","name":"getMarketIds","inputs":[],"outputs":[{"name":"","type":"bytes32[]","internalType":"bytes32[]"}],"stateMutability":"view"},{"type":"function","name":"i_currency","inputs":[],"outputs":[{"name":"","type":"address","internalType":"contract IERC20"}],"stateMutability":"view"},{"type":"function","name":"i_defaultIdentifier","inputs":[],"outputs":[{"name":"","type":"bytes32","internalType":"bytes32"}],"stateMutability":"view"},{"type":"function","name":"i_defaultLiveness","inputs":[],"outputs":[{"name":"","type":"uint64","internalType":"uint64"}],"stateMutability":"view"},{"type":"function","name":"i_oo","inputs":[],"outputs":[{"name":"","type":"address","internalType":"contract OptimisticOracleV3Interface"}],"stateMutability":"view"},{"type":"function","name":"i_registry","inputs":[],"outputs":[{"name":"","type":"address","internalType":"contract IAgentRegistry"}],"stateMutability":"view"},{"type":"function","name":"initializeMarket","inputs":[{"name":"outcome1","type":"string","internalType":"string"},{"name":"outcome2","type":"string","internalType":"string"},{"name":"description","type":"string","internalType":"string"},{"name":"reward","type":"uint256","internalType":"uint256"},{"name":"requiredBond","type":"uint256","internalType":"uint256"}],"outputs":[{"name":"marketId","type":"bytes32","internalType":"bytes32"}],"stateMutability":"nonpayable"},{"type":"function","name":"mintOutcomeTokens","inputs":[{"name":"marketId","type":"bytes32","internalType":"bytes32"}],"outputs":[],"stateMutability":"payable"},{"type":"function","name":"poolManager","inputs":[],"outputs":[{"name":"","type":"address","internalType":"contract IPoolManager"}],"stateMutability":"view"},{"type":"function","name":"s_assertionToMarket","inputs":[{"name":"","type":"bytes32","internalType":"bytes32"}],"outputs":[{"name":"","type":"bytes32","internalType":"bytes32"}],"stateMutability":"view"},{"type":"function","name":"s_marketCount","inputs":[],"outputs":[{"name":"","type":"uint256","internalType":"uint256"}],"stateMutability":"view"},{"type":"function","name":"s_markets","inputs":[{"name":"","type":"bytes32","internalType":"bytes32"}],"outputs":[{"name":"description","type":"string","internalType":"string"},{"name":"outcome1","type":"string","internalType":"string"},{"name":"outcome2","type":"string","internalType":"string"},{"name":"outcome1Token","type":"address","internalType":"contract OutcomeToken"},{"name":"outcome2Token","type":"address","internalType":"contract OutcomeToken"},{"name":"reward","type":"uint256","internalType":"uint256"},{"name":"requiredBond","type":"uint256","internalType":"uint256"},{"name":"resolved","type":"bool","internalType":"bool"},{"name":"assertedOutcomeId","type":"bytes32","internalType":"bytes32"},{"name":"poolId","type":"bytes32","internalType":"PoolId"},{"name":"totalCollateral","type":"uint256","internalType":"uint256"}],"stateMutability":"view"},{"type":"function","name":"settleOutcomeTokens","inputs":[{"name":"marketId","type":"bytes32","internalType":"bytes32"}],"outputs":[],"stateMutability":"nonpayable"},{"type":"event","name":"AssertionDisputed","inputs":[{"name":"marketId","type":"bytes32","indexed":true,"internalType":"bytes32"},{"name":"assertionId","type":"bytes32","indexed":false,"internalType":"bytes32"}],"anonymous":false},{"type":"event","name":"AssertionFailed","inputs":[{"name":"marketId","type":"bytes32","indexed":true,"internalType":"bytes32"},{"name":"assertionId","type":"bytes32","indexed":false,"internalType":"bytes32"}],"anonymous":false},{"type":"event","name":"MarketAsserted","inputs":[{"name":"marketId","type":"bytes32","indexed":true,"internalType":"bytes32"},{"name":"assertedOutcome","type":"string","indexed":false,"internalType":"string"},{"name":"asserter","type":"address","indexed":true,"internalType":"address"},{"name":"assertionId","type":"bytes32","indexed":false,"internalType":"bytes32"}],"anonymous":false},{"type":"event","name":"MarketInitialized","inputs":[{"name":"marketId","type":"bytes32","indexed":true,"internalType":"bytes32"},{"name":"description","type":"string","indexed":false,"internalType":"string"},{"name":"creator","type":"address","indexed":true,"internalType":"address"}],"anonymous":false},{"type":"event","name":"MarketResolved","inputs":[{"name":"marketId","type":"bytes32","indexed":true,"internalType":"bytes32"},{"name":"outcomeId","type":"bytes32","indexed":false,"internalType":"bytes32"}],"anonymous":false},{"type":"event","name":"TokensMinted","inputs":[{"name":"marketId","type":"bytes32","indexed":true,"internalType":"bytes32"},{"name":"agent","type":"address","indexed":true,"internalType":"address"},{"name":"amount","type":"uint256","indexed":false,"internalType":"uint256"}],"anonymous":false},{"type":"event","name":"TokensSettled","inputs":[{"name":"marketId","type":"bytes32","indexed":true,"internalType":"bytes32"},{"name":"agent","type":"address","indexed":true,"internalType":"address"},{"name":"payout","type":"uint256","indexed":false,"internalType":"uint256"}],"anonymous":false},{"type":"error","name":"ActiveAssertionExists","inputs":[]},{"type":"error","name":"EthTransferFailed","inputs":[]},{"type":"error","name":"HookNotImplemented","inputs":[]},{"type":"error","name":"InvalidOutcome","inputs":[]},{"type":"error","name":"MarketAlreadyResolved","inputs":[]},{"type":"error","name":"MarketNotFound","inputs":[]},{"type":"error","name":"MarketNotResolved","inputs":[]},{"type":"error","name":"NoTokensToSettle","inputs":[]},{"type":"error","name":"NotPoolManager","inputs":[]},{"type":"error","name":"NotRegisteredAgent","inputs":[]},{"type":"error","name":"OnlyOracle","inputs":[]},{"type":"error","name":"SafeERC20FailedOperation","inputs":[{"name":"token","type":"address","internalType":"address"}]},{"type":"error","name":"ZeroMintAmount","inputs":[]}],"bytecode":{"object":"0x61014080604052346103025760a08161373a80380380916100208285610405565b833981010312610302578051906001600160a01b0382168203610302576020810151906001600160a01b0382168203610302576040810151926001600160a01b03841691828503610302576060810151906001600160a01b03821682036103025760800151916001600160401b0383168303610302576080525f6101a06040516100a9816103d5565b8281528260208201528260408201528260608201528260808201528260a08201528260c08201528260e0820152826101008201528261012082015282610140820152826101608201528261018082015201525f6101a060405161010b816103d5565b828152826020820152600160408201528260608201528260808201528260a0820152600160c08201528260e0820152826101008201528261012082015282610140820152826101608201528261018082015201526120003016158015906103c8575b80156103b7575b80156103aa575b801561039d575b8015610390575b8015610380575b8015610374575b8015610368575b801561035c575b8015610350575b8015610344575b8015610338575b801561032c575b6103195760049460209460a05260c05260e052610100526040519283809263d509b01760e01b82525afa90811561030e575f916102d8575b5061012052604051613311908161042982396080518181816102b601528181610336015281816103860152818161081501528181610f31015281816111f70152818161125601528181611a3f015281816122540152612323015260a051818181610f9f0152818161132c01528181611a8801528181611b530152818161221201526122a1015260c05181818161017b01528181610407015281816119b90152611c8d015260e05181818161118a0152818161195c0152611c5f015261010051818181611df901526121230152610120518181816103cd0152611e2a0152f35b90506020813d602011610306575b816102f360209383610405565b8101031261030257515f6101f9565b5f80fd5b3d91506102e6565b6040513d5f823e3d90fd5b630732d7b560e51b5f523060045260245ffd5b506001301615156101c1565b506002301615156101ba565b506004301615156101b3565b506008301615156101ac565b506010301615156101a5565b5060203016151561019e565b50604030161515610197565b5060803016151560011415610190565b5061010030161515610189565b5061020030161515610182565b506104003016151561017b565b506108003016151560011415610174565b506110003016151561016d565b6101c081019081106001600160401b038211176103f157604052565b634e487b7160e01b5f52604160045260245ffd5b601f909101601f19168101906001600160401b038211908210176103f15760405256fe6080604052600436101561001a575b3615610018575f80fd5b005b5f803560e01c806321d0ee7014612310578063259982e5146122415780632a663606146121fd578063398c6f7e146121475780633ec7469214612104578063565429a814611b02578063575e24b4146119e85780635998013f146119a45780635cb1cc0b146112995780636c2bbe7e146112435780636fe7e6eb146111b95780637ec1be7614611175578063812e1a7b14610f715780639f063efc14610f1a578063acd98e2914610853578063b47b2fb1146107bb578063b6a8b0fa1461029f578063c3c95c7b146106fb578063c480e488146105e8578063c4e833ce1461047f578063d448a4ec146103f0578063d6a9b1bc146103b5578063dc4c90d314610370578063dc98354e14610301578063e1b4af691461029f578063e74d916d14610275578063e88dc465146102575763f1b156b214610159575061000e565b34610254576040366003190112610254576004356024358015158103610250577f00000000000000000000000000000000000000000000000000000000000000006001600160a01b03163303610241578183526001602052604083205491828452836020528360408120925f1461020d575050602060088260077f81e6139d4590ae37e3bcbb2dc42f1a436d8350fd4aab6319f9c3bb2dbbca83149401600160ff198254161790550154604051908152a280f35b9060209160087fbc19aba8b34ebe13f2c82d885af0ad7f5fdcb0a8f316d7e7a082a9c36577e12c940155604051908152a280f35b6380fee10560e01b8352600483fd5b8280fd5b80fd5b50346102545780600319360112610254576020600254604051908152f35b50346102545760203660031901126102545760406020916004358152600183522054604051908152f35b5034610254576004906102b136612489565b5050507f00000000000000000000000000000000000000000000000000000000000000006001600160a01b0316330392506102f591505057630a85dc2960e01b8152fd5b63570c108560e11b8152fd5b50346102545760e03660031901126102545761031b612364565b5060a036602319011261025457600490610333612473565b507f00000000000000000000000000000000000000000000000000000000000000006001600160a01b031633036102f557630a85dc2960e01b8152fd5b50346102545780600319360112610254576040517f00000000000000000000000000000000000000000000000000000000000000006001600160a01b03168152602090f35b503461025457806003193601126102545760206040517f00000000000000000000000000000000000000000000000000000000000000008152f35b5034610254576020366003190112610254576004357f00000000000000000000000000000000000000000000000000000000000000006001600160a01b031633036104705780825260016020527fb0b7745dbc52ca54ee13627e6cabcdd84d9b9e98d4e7882af6daf1dae0747da76020604084205492604051908152a280f35b6380fee10560e01b8252600482fd5b5034610254578060031936011261025457806101c0916101a06040516104a4816125bd565b8281528260208201528260408201528260608201528260808201528260a08201528260c08201528260e08201528261010082015282610120820152826101408201528261016082015282610180820152015260405190610503826125bd565b80825260208201918183526040810160018152606082018381526080830184815260a0840185815260c085016001815260e08601908782526101008701928884526101208801948986526101408901968a88526101608a01988b8a526101a06101808c019b8d8d52019b808d5260206040519e8f92835251151591015251151560408d015251151560608c015251151560808b015251151560a08a015251151560c089015251151560e08801525115156101008701525115156101208601525115156101408501525115156101608401525115156101808301525115156101a0820152f35b50346102545760203660031901126102545760409060043581528060205220610160604051916106238361061c818461253c565b03846125d9565b60405161063e81610637816001860161253c565b03826125d9565b604051916106538361061c816002850161253c565b60018060a01b036003820154169260018060a01b03600483015416600583015460068401549060ff600786015416926106c96008870154956106bb600a60098a0154990154996106ad6040519e8f9e8f81815201906124e0565b8d810360208f0152906124e0565b908b820360408d01526124e0565b9760608a0152608089015260a088015260c0870152151560e08601526101008501526101208401526101408301520390f35b503461025457602036600319011261025457610160604061077f926004358152806020522060018060a01b036003820154169060018060a01b036004820154166005820154600683015460ff600785015416906008850154926009860154946106c960026106bb600a8a0154996040519d8e80610778818561253c565b03906125d9565b6107a7604051916107978361061c816001850161253c565b61061c604051809681930161253c565b6106ad6040519e8f9e8f81815201906124e0565b503461025457610160366003190112610254576107d6612364565b5060a03660231901126102545760603660c319011261025457610144356001600160401b03811161084f57906108116004923690840161237a565b50507f00000000000000000000000000000000000000000000000000000000000000006001600160a01b031633036102f557630a85dc2960e01b8152fd5b5080fd5b5034610254576020366003190112610254576004358082526020829052604082206003810180549192916001600160a01b03168015610f0b5760ff60078501541615610efc576040516108ad81610637816001890161253c565b602081519101206040516108c8816106378160028a0161253c565b602081519101209060088601549081145f14610af357505090546040516370a0823160e01b81523360048201526001600160a01b03909116939150602081602481875afa908115610ae8578591610ab6575b508015610aa7576040516318160ddd60e01b8152859190602081600481895afa908115610a9c578391610a60575b506109609061095b600a8601548461265a565b61266d565b94803b1561025057604051632770a7eb60e21b8152336004820152602481019290925282908290604490829084905af18015610a5557610a3c575b5050600a905b01805490838203918211610a2857558280808085335af13d15610a23573d6109c881612612565b906109d660405192836125d9565b81528460203d92013e5b15610a14576040519182527f81230ad21489f10370ac678b2d388ac8e10c34303c5fad7f879cb33c4b0f534e60203393a380f35b630db2c7f160e31b8352600483fd5b6109e0565b634e487b7160e01b85526011600452602485fd5b81610a46916125d9565b610a5157835f61099b565b8380fd5b6040513d84823e3d90fd5b9250506020823d602011610a94575b81610a7c602093836125d9565b81010312610a905761096086925190610948565b5f80fd5b3d9150610a6f565b6040513d85823e3d90fd5b63c988bc4f60e01b8552600485fd5b90506020813d602011610ae0575b81610ad1602093836125d9565b81010312610a9057515f61091a565b3d9150610ac4565b6040513d87823e3d90fd5b91925003610c3e57506004828101546040516370a0823160e01b815233928101929092526001600160a01b03169290602081602481875afa908115610ae8578591610c0c575b508015610aa7576040516318160ddd60e01b8152859190602081600481895afa908115610a9c578391610bd4575b50610b7a9061095b600a8601548461265a565b94803b1561025057604051632770a7eb60e21b8152336004820152602481019290925282908290604490829084905af18015610a5557610bbf575b5050600a906109a1565b81610bc9916125d9565b610a5157835f610bb5565b9250506020823d602011610c04575b81610bf0602093836125d9565b81010312610a9057610b7a86925190610b67565b3d9150610be3565b90506020813d602011610c36575b81610c27602093836125d9565b81010312610a9057515f610b39565b3d9150610c1a565b916040516370a0823160e01b8152336004820152602081602481875afa908115610ae8578591610eca575b506004820160018060a01b0381541691604051926370a0823160e01b8452336004850152602084602481845afa938415610ebf578894610e8b575b50610caf848361262d565b908115610e7c576040516318160ddd60e01b81528995949392916020826004818d5afa918215610e3a578792610e45575b50906020600492604051938480926318160ddd60e01b82525afa918215610e3a578792610e00575b50610d1a610d26939261095b9261262d565b91600a8901549061265a565b9681610d9f575b505081610d40575b505050600a906109a1565b546001600160a01b0316803b1561025057604051632770a7eb60e21b8152336004820152602481019290925282908290604490829084905af18015610a5557610d8a575b80610d35565b81610d94916125d9565b610a5157835f610d84565b803b15610dfc57604051632770a7eb60e21b8152336004820152602481019290925284908290604490829084905af1908115610df157849115610d2d5781610de6916125d9565b61025057825f610d2d565b6040513d86823e3d90fd5b8480fd5b92915095506020823d602011610e32575b81610e1e602093836125d9565b81010312610a905790518995610d1a610d08565b3d9150610e11565b6040513d89823e3d90fd5b915095506020813d602011610e74575b81610e62602093836125d9565b81010312610a90575189956020610ce0565b3d9150610e55565b63c988bc4f60e01b8952600489fd5b9093506020813d602011610eb7575b81610ea7602093836125d9565b81010312610a905751925f610ca4565b3d9150610e9a565b6040513d8a823e3d90fd5b90506020813d602011610ef4575b81610ee5602093836125d9565b81010312610a9057515f610c69565b3d9150610ed8565b63174b639360e11b8552600485fd5b6307db1be560e41b8552600485fd5b503461025457600490610f2c3661240a565b5050507f00000000000000000000000000000000000000000000000000000000000000006001600160a01b0316330393506102f59250505057630a85dc2960e01b8152fd5b506020366003190112610a90576040516307feec1960e21b81523360048281019190915235906020816024817f00000000000000000000000000000000000000000000000000000000000000006001600160a01b03165afa9081156110ff575f91611146575b5015611137573415611128575f81815260208190526040902060038101546001600160a01b031680156111195760ff60078301541661110a57803b15610a90576040516340c10f1960e01b8152336004820152346024820152905f908290604490829084905af180156110ff576110ea575b50600481015483906001600160a01b0316803b1561084f576040516340c10f1960e01b81523360048201523460248201529082908290604490829084905af18015610a55576110d5575b5050600a016110a334825461262d565b9055604051903482527fef616469a0b35ce807813d17c53c505b9d4796a93287cd361318dbca99ac925060203393a380f35b816110df916125d9565b61025057825f611093565b6110f79193505f906125d9565b5f915f611049565b6040513d5f823e3d90fd5b63aa43cb2d60e01b5f5260045ffd5b6307db1be560e41b5f5260045ffd5b630856e64360e21b5f5260045ffd5b637b5b95df60e11b5f5260045ffd5b611168915060203d60201161116e575b61116081836125d9565b8101906125fa565b5f610fd7565b503d611156565b34610a90575f366003190112610a90576040517f00000000000000000000000000000000000000000000000000000000000000006001600160a01b03168152602090f35b34610a9057610100366003190112610a90576111d3612364565b5060a0366023190112610a90576111e8612473565b5060e4358060020b03610a90577f00000000000000000000000000000000000000000000000000000000000000006001600160a01b0316330361123457630a85dc2960e01b5f5260045ffd5b63570c108560e11b5f5260045ffd5b34610a90576112513661240a565b5050507f00000000000000000000000000000000000000000000000000000000000000006001600160a01b0316330393506112349250505057630a85dc2960e01b5f5260045ffd5b34610a905760a0366003190112610a90576004356001600160401b038111610a90576112c990369060040161237a565b6024356001600160401b038111610a90576112e890369060040161237a565b90916044356001600160401b038111610a905761130990369060040161237a565b6040516307feec1960e21b815233600482015291959093606435926020816024817f00000000000000000000000000000000000000000000000000000000000000006001600160a01b03165afa9081156110ff575f91611985575b5015611137576002546040516113ac8160208101936080855261138c8c8b60a085019161263a565b90426040840152336060840152608083015203601f1981018352826125d9565b51902095604051916a021a620ab902ca2a99016960ad1b60208401528689602b8501376113ec602b848981015f838201520301601f1981018552846125d9565b60405192610bc7938481018181106001600160401b03821117611708578160409161142661271595898785396060835260608301906124e0565b9080820360208201526005825264636c59455360d81b602083015283309101520301905ff09384156110ff576040519069021a620ab9027279016960b51b6020830152898c602a84013761148d602a838c81015f838201520301601f1981018452836125d9565b60405192818401908482106001600160401b038311176117085760409385936114c09285396060835260608301906124e0565b9080820360208201526004825263636c4e4f60e01b602083015283309101520301905ff09384156110ff5785611954575b885f525f60205260405f20966001600160401b038911611708576115158854612504565b601f811161190f575b50885f601f82116001146118ab575f916118a0575b508960011b905f198b60031b1c19161788555b60018801916001600160401b0382116117085781906115658454612504565b601f8111611850575b505f90601f83116001146117e9575f926117de575b50508160011b915f199060031b1c19161790555b60028601916001600160401b0382116117085781906115b68454612504565b601f811161178e575b505f90601f8311600114611727575f9261171c575b50508160011b915f199060031b1c19161790555b600384019060018060a01b03166bffffffffffffffffffffffff60a01b825416179055600483019060018060a01b03166bffffffffffffffffffffffff60a01b82541617905560058201556006608435910155600354680100000000000000008110156117085760018101806003558110156116f45760035f527fc2575a0e9e593c00f959f8c92f12db2869c3395a3b0502d05e2516446f71f85b018290556002545f1981146116e0577ff01ffee5464a2d2e852ed09b876d89913609461936ccf9e41a1d05778f7867cb6116d5602095600186940160025560405191829188835233968984019161263a565b0390a3604051908152f35b634e487b7160e01b5f52601160045260245ffd5b634e487b7160e01b5f52603260045260245ffd5b634e487b7160e01b5f52604160045260245ffd5b013590508a806115d4565b909150601f19831691845f5260205f20925f5b818110611776575090846001959493921061175d575b505050811b0190556115e8565b01355f19600384901b60f8161c191690558a8080611750565b9193602060018192878701358155019501920161173a565b909150835f5260205f20601f840160051c810191602085106117d4575b90601f859493920160051c01905b8181106117c657506115bf565b5f81558493506001016117b9565b90915081906117ab565b013590508c80611583565b909150601f19831691845f5260205f20925f5b818110611838575090846001959493921061181f575b505050811b019055611597565b01355f19600384901b60f8161c191690558c8080611812565b919360206001819287870135815501950192016117fc565b909150835f5260205f20601f840160051c81019160208510611896575b90601f859493920160051c01905b818110611888575061156e565b5f815584935060010161187b565b909150819061186d565b90508b01358c611533565b5f8a8152602081209290601f198216908f5b8282106118f4575050106118db575b5050600189811b018855611546565b8c01355f1960038c901b60f8161c191690558b806118cc565b84013585556001909401936020938401938e9350018f6118bd565b885f5260205f20601f8b0160051c81019160208c1061194a575b601f0160051c01905b81811061193f575061151e565b5f8155600101611932565b9091508190611929565b6119808630337f000000000000000000000000000000000000000000000000000000000000000061268b565b6114f1565b61199e915060203d60201161116e5761116081836125d9565b88611364565b34610a90575f366003190112610a90576040517f00000000000000000000000000000000000000000000000000000000000000006001600160a01b03168152602090f35b34610a9057610140366003190112610a9057611a02612364565b5060a0366023190112610a905760603660c3190112610a9057610124356001600160401b038111610a9057611a3b90369060040161237a565b50507f00000000000000000000000000000000000000000000000000000000000000006001600160a01b03163303611234576040516307feec1960e21b81523260048201526020816024817f00000000000000000000000000000000000000000000000000000000000000006001600160a01b03165afa9081156110ff575f91611ae3575b50156111375760606040516315d7892d60e21b81525f60208201525f6040820152f35b611afc915060203d60201161116e5761116081836125d9565b81611ac0565b34610a90576040366003190112610a90576004356024356001600160401b038111610a9057611b3590369060040161237a565b6040516307feec1960e21b81523360048201529192916020816024817f00000000000000000000000000000000000000000000000000000000000000006001600160a01b03165afa9081156110ff575f916120e5575b501561113757815f525f60205260405f209260018060a01b03600385015416156111195760ff60078501541661110a576008840180546120d657611bce83612612565b611bdb60405191826125d9565b83815260208101903685850111610a9057848483375f6020868301015251902090604051611c10816106378160018b0161253c565b60208151910120604051611c2b816106378160028c0161253c565b602081519101209083141590816120cb575b5080612099575b61208a57604051634360af3d60e01b81526001600160a01b037f0000000000000000000000000000000000000000000000000000000000000000818116600484018190529890927f000000000000000000000000000000000000000000000000000000000000000090921691602081602481865afa9081156110ff575f91612058575b50600682015490808211156120505750925b611ce58430338461268b565b611cf360058301548561262d565b9060405163095ea7b360e01b5f52846004528260245260205f60448180865af19060015f5114821615612041575b60405215611f68575b5050866040519167026b0b935b2ba1d160c51b6020840152875f91805490611d5182612504565b9160018116908115611f405750600114611efd575b505092611db560016014838686611ddc9860209c9b9a730171020b9b9b2b93a32b21037baba31b7b6b29d160651b5f9a528583013701601760f91b838201520301601e198101845201826125d9565b604051636457c97960e01b815261012060048201529b8c95869485936101248501906124e0565b913360248501523060448501528460648501526001600160401b037f000000000000000000000000000000000000000000000000000000000000000016608485015260a484015260c48301527f000000000000000000000000000000000000000000000000000000000000000060e48301528261010483015203925af19586156110ff575f96611ebf575b5091611eb1917fab12f57da170bb2466605c5ae79facc28eedb88c90b187555e5def705b0e09fb9493875f5260016020528660405f2055556040519260408452604084019161263a565b9360208201528033940390a3005b9193929095506020823d602011611ef5575b81611ede602093836125d9565b81010312610a905790519491929091611eb1611e67565b3d9150611ed1565b909192505f5260205f205f905b828210611f23575050830160280190611db56001611d66565b8054602883880101528b94508a9350602090910190600101611f0a565b60ff191660288089019190915283151590930287019092019350611db5915060019050611d66565b60405163095ea7b360e01b5f52846004525f60245260205f60448180865af19060015f5114821615612020575b6040521561200d576040519163095ea7b360e01b5f528460045260245260205f60448180855af19060015f5114821615611fee575b509060405215611fdb578980611d2a565b88635274afe760e01b5f5260045260245ffd5b6001821516612004573b15153d1516168b611fca565b823d5f823e3d90fd5b8a635274afe760e01b5f5260045260245ffd5b90600181151661203857823b15153d15161690611f95565b503d5f823e3d90fd5b90823b15153d15161690611d21565b905092611cd9565b90506020813d602011612082575b81612073602093836125d9565b81010312610a9057518a611cc7565b3d9150612066565b63c74a206d60e01b5f5260045ffd5b50600c60206040516120ac6040826125d9565b828152016b556e7265736f6c7661626c6560a01b815220821415611c44565b905082141587611c3d565b630aefc5a560e31b5f5260045ffd5b6120fe915060203d60201161116e5761116081836125d9565b84611b8b565b34610a90575f366003190112610a905760206040516001600160401b037f0000000000000000000000000000000000000000000000000000000000000000168152f35b34610a90575f366003190112610a90576040518060206003549283815201809260035f527fc2575a0e9e593c00f959f8c92f12db2869c3395a3b0502d05e2516446f71f85b905f5b8181106121e757505050816121a59103826125d9565b604051918291602083019060208452518091526040830191905f5b8181106121ce575050500390f35b82518452859450602093840193909201916001016121c0565b825484526020909301926001928301920161218f565b34610a90575f366003190112610a90576040517f00000000000000000000000000000000000000000000000000000000000000006001600160a01b03168152602090f35b34610a905761224f366123a7565b5050507f00000000000000000000000000000000000000000000000000000000000000006001600160a01b0316330391506112349050576040516307feec1960e21b81523260048201526020816024817f00000000000000000000000000000000000000000000000000000000000000006001600160a01b03165afa9081156110ff575f916122f1575b50156111375760405163259982e560e01b8152602090f35b61230a915060203d60201161116e5761116081836125d9565b816122d9565b34610a905761231e366123a7565b5050507f00000000000000000000000000000000000000000000000000000000000000006001600160a01b031633039150611234905057630a85dc2960e01b5f5260045ffd5b600435906001600160a01b0382168203610a9057565b9181601f84011215610a90578235916001600160401b038311610a905760208381860195010111610a9057565b90610160600319830112610a90576004356001600160a01b0381168103610a90579160a0602319820112610a9057602491608060c319830112610a905760c49161014435906001600160401b038211610a90576124069160040161237a565b9091565b906101a0600319830112610a90576004356001600160a01b0381168103610a90579160a0602319820112610a9057602491608060c319830112610a905760c4916101443591610164359161018435906001600160401b038211610a90576124069160040161237a565b60c435906001600160a01b0382168203610a9057565b610120600319820112610a90576004356001600160a01b0381168103610a90579160a0602319830112610a905760249160c4359160e4359161010435906001600160401b038211610a90576124069160040161237a565b805180835260209291819084018484015e5f828201840152601f01601f1916010190565b90600182811c92168015612532575b602083101461251e57565b634e487b7160e01b5f52602260045260245ffd5b91607f1691612513565b5f929181549161254b83612504565b80835292600181169081156125a0575060011461256757505050565b5f9081526020812093945091925b838310612586575060209250010190565b600181602092949394548385870101520191019190612575565b915050602093945060ff929192191683830152151560051b010190565b6101c081019081106001600160401b0382111761170857604052565b90601f801991011681019081106001600160401b0382111761170857604052565b90816020910312610a9057518015158103610a905790565b6001600160401b03811161170857601f01601f191660200190565b919082018092116116e057565b908060209392818452848401375f828201840152601f01601f1916010190565b818102929181159184041417156116e057565b8115612677570490565b634e487b7160e01b5f52601260045260245ffd5b6040516323b872dd60e01b5f9081526001600160a01b039384166004529290931660245260449390935260209060648180865af19060015f51148216156126fc575b6040525f606052156126dc5750565b635274afe760e01b5f9081526001600160a01b0391909116600452602490fd5b90600181151661203857823b15153d151616906126cd56fe60a06040523461034457610bc78038038061001981610348565b9283398101906060818303126103445780516001600160401b038111610344578261004591830161036d565b60208201519092906001600160401b0381116103445760409161006991840161036d565b9101516001600160a01b03811681036103445782516001600160401b03811161025557600354600181811c9116801561033a575b602082101461023757601f81116102d7575b506020601f821160011461027457819293945f92610269575b50508160011b915f199060031b1c1916176003555b81516001600160401b03811161025557600454600181811c9116801561024b575b602082101461023757601f81116101d4575b50602092601f821160011461017357928192935f92610168575b50508160011b915f199060031b1c1916176004555b60805260405161080890816103bf82396080518181816101440152818161034301526103c80152f35b015190505f8061012a565b601f1982169360045f52805f20915f5b8681106101bc57508360019596106101a4575b505050811b0160045561013f565b01515f1960f88460031b161c191690555f8080610196565b91926020600181928685015181550194019201610183565b60045f527f8a35acfbc15ff81a39ae7d344fd709f28e8600b4aa8c65c6b64bfe7fe36bd19b601f830160051c8101916020841061022d575b601f0160051c01905b8181106102225750610110565b5f8155600101610215565b909150819061020c565b634e487b7160e01b5f52602260045260245ffd5b90607f16906100fe565b634e487b7160e01b5f52604160045260245ffd5b015190505f806100c8565b601f1982169060035f52805f20915f5b8181106102bf575095836001959697106102a7575b505050811b016003556100dd565b01515f1960f88460031b161c191690555f8080610299565b9192602060018192868b015181550194019201610284565b60035f527fc2575a0e9e593c00f959f8c92f12db2869c3395a3b0502d05e2516446f71f85b601f830160051c81019160208410610330575b601f0160051c01905b81811061032557506100af565b5f8155600101610318565b909150819061030f565b90607f169061009d565b5f80fd5b6040519190601f01601f191682016001600160401b0381118382101761025557604052565b81601f82011215610344578051906001600160401b0382116102555761039c601f8301601f1916602001610348565b928284526020838301011161034457815f9260208093018386015e830101529056fe6080806040526004361015610012575f80fd5b5f3560e01c90816306fdde031461061657508063095ea7b31461059457806318160ddd1461057757806323b872dd14610498578063313ce5671461047d57806340c10f19146103a957806370a08231146103725780637f5a7c7b1461032e57806395d89b41146102135780639dc29fac14610125578063a9059cbb146100f45763dd62ed3e146100a0575f80fd5b346100f05760403660031901126100f0576100b961070f565b6100c1610725565b6001600160a01b039182165f908152600160209081526040808320949093168252928352819020549051908152f35b5f80fd5b346100f05760403660031901126100f05761011a61011061070f565b602435903361073b565b602060405160018152f35b346100f05760403660031901126100f05761013e61070f565b602435907f00000000000000000000000000000000000000000000000000000000000000006001600160a01b03163303610204576001600160a01b031680156101f157805f525f60205260405f20548281106101d8576020835f947fddf252ad1be2c89b69c2b068fc378daa952ba7f163c4a11628f55a4df523b3ef938587528684520360408620558060025403600255604051908152a3005b9063391434e360e21b5f5260045260245260445260645ffd5b634b637e8f60e11b5f525f60045260245ffd5b635a91834f60e01b5f5260045ffd5b346100f0575f3660031901126100f0576040515f6004548060011c90600181168015610324575b602083108114610310578285529081156102f4575060011461029f575b50819003601f01601f191681019067ffffffffffffffff82118183101761028b57610287829182604052826106e5565b0390f35b634e487b7160e01b5f52604160045260245ffd5b905060045f527f8a35acfbc15ff81a39ae7d344fd709f28e8600b4aa8c65c6b64bfe7fe36bd19b5f905b8282106102de57506020915082010182610257565b60018160209254838588010152019101906102c9565b90506020925060ff191682840152151560051b82010182610257565b634e487b7160e01b5f52602260045260245ffd5b91607f169161023a565b346100f0575f3660031901126100f0576040517f00000000000000000000000000000000000000000000000000000000000000006001600160a01b03168152602090f35b346100f05760203660031901126100f0576001600160a01b0361039361070f565b165f525f602052602060405f2054604051908152f35b346100f05760403660031901126100f0576103c261070f565b602435907f00000000000000000000000000000000000000000000000000000000000000006001600160a01b03163303610204576001600160a01b031690811561046a57600254908082018092116104565760207fddf252ad1be2c89b69c2b068fc378daa952ba7f163c4a11628f55a4df523b3ef915f9360025584845283825260408420818154019055604051908152a3005b634e487b7160e01b5f52601160045260245ffd5b63ec442f0560e01b5f525f60045260245ffd5b346100f0575f3660031901126100f057602060405160128152f35b346100f05760603660031901126100f0576104b161070f565b6104b9610725565b6001600160a01b0382165f818152600160209081526040808320338452909152902054909260443592915f1981106104f7575b5061011a935061073b565b83811061055c5784156105495733156105365761011a945f52600160205260405f2060018060a01b0333165f526020528360405f2091039055846104ec565b634a1406b160e11b5f525f60045260245ffd5b63e602df0560e01b5f525f60045260245ffd5b8390637dc7a0d960e11b5f523360045260245260445260645ffd5b346100f0575f3660031901126100f0576020600254604051908152f35b346100f05760403660031901126100f0576105ad61070f565b602435903315610549576001600160a01b031690811561053657335f52600160205260405f20825f526020528060405f20556040519081527f8c5be1e5ebec7d5bd14f71427d1e84f3dd0314c0f7b2291e5b200ac8c7c3b92560203392a3602060405160018152f35b346100f0575f3660031901126100f0575f6003548060011c906001811680156106db575b602083108114610310578285529081156102f457506001146106865750819003601f01601f191681019067ffffffffffffffff82118183101761028b57610287829182604052826106e5565b905060035f527fc2575a0e9e593c00f959f8c92f12db2869c3395a3b0502d05e2516446f71f85b5f905b8282106106c557506020915082010182610257565b60018160209254838588010152019101906106b0565b91607f169161063a565b602060409281835280519182918282860152018484015e5f828201840152601f01601f1916010190565b600435906001600160a01b03821682036100f057565b602435906001600160a01b03821682036100f057565b6001600160a01b03169081156101f1576001600160a01b031691821561046a57815f525f60205260405f20548181106107b957817fddf252ad1be2c89b69c2b068fc378daa952ba7f163c4a11628f55a4df523b3ef92602092855f525f84520360405f2055845f525f825260405f20818154019055604051908152a3565b8263391434e360e21b5f5260045260245260445260645ffdfea26469706673582212209e2c80f9ddb0d9d45b19eb0141e39e64516de5237e97798ae0cb24aa56d56f6c64736f6c634300081a0033a26469706673582212200cf390336e1344374c0cd0f359641b5c31bc8a895b29a64e67cebaca58e5dc0664736f6c634300081a0033","linkReferences":{}},"methodIdentifiers":{"afterAddLiquidity(address,(address,address,uint24,int24,address),(int24,int24,int256,bytes32),int256,int256,bytes)":"9f063efc","afterDonate(address,(address,address,uint24,int24,address),uint256,uint256,bytes)":"e1b4af69","afterInitialize(address,(address,address,uint24,int24,address),uint160,int24)":"6fe7e6eb","afterRemoveLiquidity(address,(address,address,uint24,int24,address),(int24,int24,int256,bytes32),int256,int256,bytes)":"6c2bbe7e","afterSwap(address,(address,address,uint24,int24,address),(bool,int256,uint160),int256,bytes)":"b47b2fb1","assertMarket(bytes32,string)":"565429a8","assertionDisputedCallback(bytes32)":"d448a4ec","assertionResolvedCallback(bytes32,bool)":"f1b156b2","beforeAddLiquidity(address,(address,address,uint24,int24,address),(int24,int24,int256,bytes32),bytes)":"259982e5","beforeDonate(address,(address,address,uint24,int24,address),uint256,uint256,bytes)":"b6a8b0fa","beforeInitialize(address,(address,address,uint24,int24,address),uint160)":"dc98354e","beforeRemoveLiquidity(address,(address,address,uint24,int24,address),(int24,int24,int256,bytes32),bytes)":"21d0ee70","beforeSwap(address,(address,address,uint24,int24,address),(bool,int256,uint160),bytes)":"575e24b4","getHookPermissions()":"c4e833ce","getMarket(bytes32)":"c3c95c7b","getMarketIds()":"398c6f7e","i_currency()":"7ec1be76","i_defaultIdentifier()":"d6a9b1bc","i_defaultLiveness()":"3ec74692","i_oo()":"5998013f","i_registry()":"2a663606","initializeMarket(string,string,string,uint256,uint256)":"5cb1cc0b","mintOutcomeTokens(bytes32)":"812e1a7b","poolManager()":"dc4c90d3","s_assertionToMarket(bytes32)":"e74d916d","s_marketCount()":"e88dc465","s_markets(bytes32)":"c480e488","settleOutcomeTokens(bytes32)":"acd98e29"},"id":32}